:020000040000FA
:10000000F0210020150200001D0200001F02000068
:100010002102000023020000250200000000000071
:1000200000000000000000000000000027020000A7
:1000300029020000000000002B0200002D02000039
:100040002F0200002F0200002F0200002F020000EC
:100050002F0200002F0200005D0200002F020000AE
:10006000390700004D070000610700002F02000063
:100070002F0200002F0200002F0200002F020000BC
:100080002F020000150400002F0200002F020000C4
:10009000390400002F0200002F0200002F02000090
:1000A0002F0200002F0200002F0200002F0200008C
:1000B0002F0200002F0200000000000000000000DE
:1000C0002F0200002F0200002F0200002F0200006C
:1000D0002F0200002F0200002F020000000000008D
:1000E0000000000000000000000000000000000010
:1000F0000000000000000000000000000000000000
:1001000000000000000000000000000000000000EF
:1001100000000000000000000000000000000000DF
:1001200000000000000000000000000000000000CF
:1001300000000000000000000000000000000000BF
:1001400000000000000000000000000000000000AF
:10015000000000000000000000000000000000009F
:10016000000000000000000000000000000000008F
:10017000000000000000000000000000000000007F
:10018000000000000000000000000000000000006F
:10019000000000000000000000000000000000005F
:1001A000000000000000000000000000000000004F
:1001B000000000000000000000000000000000003F
:1001C000000000000000000000000000000000002F
:1001D000000000000000000000000000000000001F
:1001E000000000000000000000000000000000000F
:1001F00000000000000000000000000000000000FF
:10020000DFF80CD000F018F800480047150B00008C
:10021000F02100200648804706480047FEE7FEE739
:10022000FEE7FEE7FEE7FEE7FEE7FEE7FEE7FEE7A6
:100230003D04000001020000064C074D06E0E068A6
:1002400040F0010394E8070098471034AC42F6D31D
:10025000FFF7DAFF80110000A01100002DE9F04740
:1002600000268CB0DFF86091B0464FF48075012411
:1002700037460696284600F0DDFD38B1D9F804036C
:10028000204203D0284600F0CBFD26432D1D6400FC
:100290007F1CADB2082FEDD34FF4BE74204600F0A2
:1002A000C9FD48B1204600F0BBFD46F0004606AA55
:1002B0000121002000F0A0FD444D16F0FF0F15D0E5
:1002C0000127002437420DD009EB8401D1F8100535
:1002D000D1F81015C0F3042055F82420C1F30141D2
:1002E00002B190477F00641C082CEBD3002E67DA24
:1002F0004FF0FF30CDE9088000263446281910F869
:10030000507F90F9000027F0C008401C44D009A994
:10031000404600F013FC58B34FEA9719404600F0EE
:100320005DFA55F820701FB1B9F1030F03D00FE04B
:10033000B9F1030F30D108A84FEAD80208F007033B
:10034000815C4FF0010C0CFA03FC41EA0C01815472
:100350004FF0A04101EB8800D0F8000706A9C0F3D8
:10036000014A404600F0EAFB18B1BAF1020F03D08F
:1003700012E0BAF1030F0FD1B9F1030F08D1BAF1AE
:10038000020F1BD00221404600F024FD761CF6B27D
:1003900017B149464046B847641C042CAED3002E22
:1003A0000ED06A460121002000F026FD0699009833
:1003B000884205D00690089809909DE70321E2E75E
:1003C0000CB0BDE8F0870000006000407000002025
:1003D00000F01F02012191404009800000F1E0205F
:1003E000C0F88012704700F01F02012191404009BF
:1003F000800000F1E020C0F80011704700F01F02FB
:10040000012191404009800000F1E020C0F8001275
:100410007047000007480021C0F84011C0F844119F
:10042000C0F84811C0F84C11C0F80011C0F8041110
:1004300000F062BE0010014000F0BEBDF0B5AE4855
:100440000023021D01780125101D4FF0805406295C
:100450000BD11678360708D10678C6F30316032E9B
:1004600006D0042E04D0052E02D0062907D00EE0B7
:10047000B4F82463A14FC6F304263E6002E0167868
:10048000360704D10678C6F30316032E02D00629D8
:1004900004D00FE09B4F9A4E7E670EE01678360729
:1004A00008D10678C6F30316032E06D0042E04D016
:1004B000052E02D0062907D00EE0D4F84462924FF0
:1004C000C6F342363E6002E01678360704D106785D
:1004D000C6F30316032E02D0062906D011E08B4E78
:1004E000376827F0807737600EE01678360708D136
:1004F0000678C6F30316032E06D0042E04D0052E6C
:1005000002D006290AD011E04FF08046C6F80C311F
:10051000C6F810317C4E361F336002E0167836077D
:1005200004D10678C6F30316032E02D0062905D09F
:100530000CE0754F032664373E600AE016783607F4
:1005400004D10678C6F30316032E02D006290DD077
:1005500014E06F4F05263E606D4E783635606C4E68
:10056000083633603F263F1D3E6002E016783607AE
:1005700004D10678C6F30316052E02D0062957D0FB
:1005800062E0644E3668644F3E60624E361D3668E7
:100590003F1D3E605F4E083636683F1D3E605D4E33
:1005A0000C3636683F1D3E605A4E103636683F1D89
:1005B0003E60584E143636683F1D3E60554E183624
:1005C0003668554F20373E60524E1C3636683F1D08
:1005D0003E60504E203636683F1D3E604D4E2436FC
:1005E00036683F1D3E604B4E283636683F1D3E60E4
:1005F000484E2C3636683F1D3E60464E30363668D3
:10060000454F40373E60434E343636683F1D3E60AE
:10061000404E383636683F1D3E603E4E3C363668AA
:100620003F1D3E603B4E403636683F1D3E6002E057
:100630001678360708D10678C6F30316032E06D0BF
:10064000042E04D0052E02D0062907D019E0D4F8D4
:100650005812324A01F04F01116002E01178090787
:100660000FD10078C0F30310032803D0042801D071
:10067000052806D12A480168C90702D06FF0010198
:10068000016022487438016841F470010160BFF3D1
:100690004F8FBFF36F8F4FF01021D1F80002002869
:1006A00003DBD1F80402002822DA1E4A15601E4836
:1006B0000468002CFCD01524C1F800420568002D08
:1006C000FCD0C1F8044201680029FCD01360016825
:1006D0000029FCD0BFF34F8F0C48F0380168134A53
:1006E00001F4E06111430160BFF34F8F00BFFDE7EC
:1006F00010490F480860F0BDE00F00F040350140A0
:100700000DF0ADBA00C007403C050040FCED00E034
:10071000105600400404001020C50040E40E0040C4
:100720000004004004E5014000E401400400FA0533
:100730000090D0034800002004220249024800F043
:100740004BB900004C000020008000400422024908
:10075000024800F041B9000058000020009000401D
:1007600004220249024800F037B90000640000206A
:1007700000A0004002E008C8121F08C1002AFAD1F8
:1007800070477047002001E001C1121F002AFBD111
:100790007047000009480068C00700D000BEBFF3E2
:1007A0004F8F0648E4380168054A01F4E0611143BF
:1007B0000160BFF34F8F00BFFDE70000F0ED00E0E8
:1007C0000400FA050EB500210091CDE901106A463A
:1007D00044F20100FFF7DEFF0EBD000002490844AD
:1007E00090F9300070470000700000202DE9F05FA4
:1007F00026488168F1B3DFF898B00E688146DBF8CF
:100800000040C7688078E11B21F07F45ED1CB0B93E
:10081000DFF880804FF48030C8F84403C8F8040340
:100820001120FFF7D5FD1120FFF7DDFD4FF0010A84
:10083000C8F800A02F2000F0CFF989F802A0B54237
:1008400000D23546124BE8193C3320F07F40186047
:10085000DBF800105A46091B21F07F41001B20F0F5
:100860007F40C91C81420FD9106818602F2000F00A
:10087000B3F900E004E0BDE8F05F1120FFF7BEBD72
:10088000BDE8F05F00F040BBBDE8F09F0C00002029
:1008900004150140001001400E4910B50A784C784B
:1008A0000023A24212D0521CD2B20A70022A00D1F6
:1008B0000B70084A0B78103252F823200260C86887
:1008C000104420F07F40C860012010BD036000206C
:1008D00010BD00000C0000200C4910B508600B484A
:1008E00005210C300A4A01700021417003218170FA
:1008F0000621C1700146074800F014FA002803D011
:10090000BDE81040FFF75EBF10BD000034000020BE
:100910008D0F000078110000F0B500252DED048B3F
:10092000B0EE408AB0EE000A9FED289A68EE008A89
:10093000B5EEC08A0126F1EE10FA254F254C81B0A4
:100940001CD06068012819D189EE280A84ED040AB8
:10095000BCEEC00A386810EE101AD0F8100501235A
:100960000A01C240E26000213846009600F0C4F956
:10097000384600F0B3F9656084ED008AB5EEC08AB0
:10098000F1EE10FA03D1124800F09AF9656094ED87
:10099000000AB4EE408AF1EE10FA13D089EE280A6C
:1009A00084ED040ABCEEC00A386810EE101AD0F8C4
:1009B000100501230A01C240E260002104480096AC
:1009C00000F09AF901B0BDEC048BF0BD002474492D
:1009D000781100002C0000202DE9F8430025164670
:1009E000884604462F4614E04FF4A07000EB8500C3
:1009F0004FF480312258A9404AB1D4F804230A4266
:100A000005D0275021580091D8E9002190476D1C4E
:100A1000EDB2B542E8D3BDE8F88300002DE9F04718
:100A2000394E002780463D46DFF8E090D6F808A012
:100A300057E003D00446D0F81C8035E099F8002038
:100A400002EB4201521CD2B289F8002009EBC1012D
:100A500099F80230091D9A4201D189F8005048687E
:100A60000A780446012A12D0022A02D0032A3BD176
:100A700008E000F011FB00B10127257434E0057493
:100A8000C06900E0B0680028F9D1B0602CE0207C9B
:100A900050BB88686060C868A0600869E060486909
:100AA000A061F07800B165606268F168184B501A77
:100AB00020F07F40984202D2A168084406E0881ADC
:100AC000A16820F07F40814202D9081A206000E02E
:100AD000256065600120A56020742046E56100F076
:100AE000BDFAB8F10000A4D199F8001099F80100FE
:100AF0008142A3D117B9B168514502D00120BDE8A8
:100B0000F0870020FBE700000C000020C800002058
:100B1000FFFF7F00074800F095F9012000F0DCF9A5
:100B2000054C204600F012F8B1EE040AFFF7F4FE7F
:100B300030BFF6E70000002080841E00C20800F0ED
:100B400007030120895C98400840704700283ED088
:100B50001F49204A096800BF00BF00BF00BF00BF97
:100B600000BF00BF00BF91422FD000BF00BF00BF39
:100B700000BF00BF00BF00BF00BF00BF00BF00BF7D
:100B800000BF00BF00BF00BF00BF00BF00BF00BF6D
:100B900000BF00BF00BF00BF00BF00BF00BF00BF5D
:100BA00000BF00BF00BF00BF00BF00BF00BF00BF4D
:100BB00000BF00BF00BF00BF00BF00BF00BF00BF3D
:100BC00000BF00BF00BF00BF00BF0138C3D17047E6
:100BD000480000200024F40000283ED01F49204A8D
:100BE000096800BF00BF00BF00BF00BF00BF00BF5B
:100BF00000BF91422FD000BF00BF00BF00BF00BFA9
:100C000000BF00BF00BF00BF00BF00BF00BF00BFEC
:100C100000BF00BF00BF00BF00BF00BF00BF00BFDC
:100C200000BF00BF00BF00BF00BF00BF00BF00BFCC
:100C300000BF00BF00BF00BF00BF00BF00BF00BFBC
:100C400000BF00BF00BF00BF00BF00BF00BF00BFAC
:100C500000BF00BF00BF0138C3D17047480000206B
:100C60000024F4004907090E002806DA00F00F02FC
:100C700002F1E02282F8141D03E000F1E02282F884
:100C8000001400F01F02012191404009800000F192
:100C9000E020C0F88012C0F80011704730B54FF462
:100CA000803405688C4013B1C5F8044301E0C5F8F1
:100CB0000843006800EB8100C0F8402530BD00000B
:100CC0000268012111610079034A00EB400002EB48
:100CD00080000172704700004C0000200168012272
:100CE0000A600079034A00EB400002EB8000022119
:100CF000017270474C000020F0B40468049E40F27A
:100D00000115D4F800728D40AF43C4F80072046836
:100D1000D4F800521D43C4F800523346F0BCFFF72C
:100D2000BDBF0000F8B504460D460079204900EB30
:100D3000400001EB8006307A08B10820F8BD3AB1D6
:100D4000326068687060002003464FF4A07709E0C5
:100D50000720F8BD226807EB800153505158401C12
:100D6000C0B2009161798142F4D82068E978000B23
:100D700040B2FFF777FF20686978D0F8042561F367
:100D80000102C0F804252068A978D0F8082561F38D
:100D90000102C0F8082520682978D0F8102561F3F1
:100DA0000302C0F81025012030720020F8BD0000B9
:100DB0004C0000200068D0F810254FF47A504843CA
:100DC000D04070474FF0A04202EB80000321C0F8F2
:100DD000001770474FF0A04202EB8000D0F80027C8
:100DE00022F44032C0F80027D0F8002742EA01413F
:100DF000C0F800177047000018B5084B6C46014456
:100E00001B68009306E000BF54F82030D3F810357B
:100E1000401C08C28142F7D818BD00006C110000C8
:100E2000034908B50844002101600068009008BD2E
:100E30000060004002494058012800D0002070475F
:100E400000600040F8B504460068FFF7BBFF60682B
:100E5000FFF7B8FFA068FFF7B5FF94E807001A4D49
:100E600040F6B83485E8070018480521184A017093
:100E700000214170032181700721C170014615488E
:100E8000FFF750FF21461348FFF794FF074640F64F
:100E90001C411048FFF78EFF0126044602233A4604
:100EA00031460C480096FFF727FF04232246022113
:100EB00008480096FFF720FF0648FFF70FFF286855
:100EC000BDE8F840FFF708BDD40100202400002051
:100ED000450F000070110000094A0121127991406C
:100EE00058B1084801600648B7EE000A0C30F2EE2F
:100EF000040A80EC020AFFF70FBD0248001FF1E769
:100F0000D40100200C05005070B5012670044FF08C
:100F1000E0210025C1F88001084C4010C4F84803C6
:100F2000C4F8080366602F20FFF756FEA660044C45
:100F30002F20E560FFF750FEA57070BD0010014046
:100F40000C0000201049B0F5A27F91ED000A04D0FA
:100F5000B0F5A47F17D1FFF7DFBC91ED011AF1EED8
:100F6000040AB4EEC01AF1EE10FA03DD30EE200AE6
:100F700081ED000AB4EEC01AF1EE10FA03D230EEA1
:100F8000600A81ED000A7047E0010020B0F5A07F03
:100F90000ED108484FF0A0410378D1F80425012074
:100FA000984020EA0203C1F808351040C1F80C054A
:100FB00070470000340000202DE9F84F2548002537
:100FC000827801784078814201D8401A02E0511AB3
:100FD0000844401C204CC0B22179884200D92071BD
:100FE000D4E902A66846FFF757FC002738B3002370
:100FF000009AA1681CE0D1F800C00846944503D9C6
:10100000ACEB02020A6015E0A2EB0C02634407603D
:10101000D0F80CC0C1698146BCF1000F08D006EBC6
:10102000030828F07F48C0E9018CC9F81C50054628
:101030000029E0D12846A160FFF7F0FC03E0284634
:10104000FFF7ECFC10B15046FFF7D0FBE770BDE8AE
:10105000F88F0000C80000200C0000200D4B10B5D8
:10106000996831B102680C68A24204D8A21A0A60D9
:10107000C161986010BD0B4603E00B46C969121BA5
:1010800021B10C689442F8D3A41A0C600260C161CB
:10109000D86110BD0C0000202DE9F041144EB76856
:1010A0003D462C4603E0844204D02546E469002CEA
:1010B000F9D11BE0D4B1A5420BD1F869B06040B9B9
:1010C0000C49012088600021F160F0702F20FFF7AB
:1010D00083FD2168E069E86110B102681144016094
:1010E000B068874202D00120BDE8F0810020FBE714
:1010F0000C000020001001402DE9F041194DAC68B2
:10110000002C2CD0184800270068E968B846401A1F
:1011100020F07F462068B0420CD82146361A07449A
:10112000E469087C20B181F81080886949698847A2
:10113000002CEFD129786878814206D1401CC0B2DA
:101140006870022801D185F801800648697810305E
:1011500040F82170BDE8F0411420FFF74FB9BDE819
:10116000F08100000C000020041501400000005038
:10117000009000400104000000A0004002040000B4
:10118000A0110000000000204C00000074070000C7
:10119000EC1100004C000020A42100008407000096
:1011A000120000001100000000000000000000001C
:1011B000000000000000000000000000000000002F
:1011C000000000000000000000000000000000001F
:1011D000010000000000000000000000000000000E
:0C11E00000000000000000000090D003A0
:0400000500000201F4
:00000001FF
